:10000000F8FF022099010000811000003D1000005F
:100010003D1000003D1000003D1000003D100000AC
:100020003D1000003D1000003D1000008110000058
:10003000811000003D1000006D22000071220000C0
:10004000811000008110000081100000811000006C
:10005000811000008110000081100000811000005C
:10006000811000008110000081100000811000004C
:10007000811000008110000081100000811000003C
:10008000811000008110000081100000811000002C
:10009000811000008110000081100000811000001C
:1000A000811000008110000081100000811000000C
:1000B00081100000811000008110000081100000FC
:1000C00081100000811000008110000081100000EC
:1000D00081100000811000008110000081100000DC
:1000E00081100000811000008110000081100000CC
:1000F00081100000811000008110000081100000BC
:1001000081100000811000008110000081100000AB
:1001100081100000751400008110000081100000A3
:10012000811000008110000081100000811000008B
:10013000811000008110000081100000811000007B
:10014000811000008110000081100000811000006B
:10015000811000008110000081100000811000005B
:10016000811000008110000081100000811000004B
:10017000811000008110000081100000811000003B
:10018000811000008110000081100000811000002B
:1001900081100000811000005A4B4CF2205210B523
:1001A000DA814DF62812DA8100BF00BF00F06CFF43
:1001B000554B4FF030621A63544A9A63544ADA63DB
:1001C0004FF0E0234FF47002C3F8882D514A1369B1
:1001D00013F4807303D153614FF4A85313614E4B52
:1001E0009A78110703D59A7842F008029A704B4B1F
:1001F0004B482A221A704B4BDA1C121AC11E22F0ED
:100200000302994288BF0022474900F043FE474B52
:100210004748DA1C121AC11E22F00302994288BF15
:100220000022002102F0CAF8424943484FF4CC7240
:1002300000F030FE414B424A802103F8011B9342FB
:10024000FBD14FF0E0233C4AC3F8082D3D4B8A22F6
:100250001A70A3F5805324225A70A0221A709A793A
:100260009207FCD59A79D406FCD4374B9A7902F0E0
:100270000C02082AFAD103221A7146225A719A797D
:100280009006FCD5304A93795906FCD51E4B4FF0A9
:10029000827159640921996420211170917901F0CA
:1002A0000C010C29FAD1294A5A604FF0E023284A60
:1002B0005A6100229A6107221A61264AC3F8202D4A
:1002C00062B600F023FF134B5B69DA0705D52248BD
:1002D00000F010FF214B224ADA61224B1B785B06AB
:1002E00009D51E4C1E4BE2699A4204D11A4800F00F
:1002F00001FF0023E36100F0CDFE02F0B1F800F051
:10030000C1FDFEE70020054000800440823F04005C
:100310000100002B00D0034000D0074000E0074060
:100320003809FF1F500BFF1F8C280000E00EFF1F35
:10033000500BFF1F000000000002FF1F00E400E060
:1003400056E400E00050064000400640C0100500A2
:10035000BFD40100000020204818E16800E00340FD
:10036000A5C3945A00F00740FFFFFFFFFFFFFFFF08
:10037000FFFFFFFFFFFFFFFFFFFFFFFFFFFFFFFF8D
:10038000FFFFFFFFFFFFFFFFFFFFFFFFFFFFFFFF7D
:10039000FFFFFFFFFFFFFFFFFFFFFFFFFFFFFFFF6D
:1003A000FFFFFFFFFFFFFFFFFFFFFFFFFFFFFFFF5D
:1003B000FFFFFFFFFFFFFFFFFFFFFFFFFFFFFFFF4D
:1003C000FFFFFFFFFFFFFFFFFFFFFFFFFFFFFFFF3D
:1003D000FFFFFFFFFFFFFFFFFFFFFFFFFFFFFFFF2D
:1003E000FFFFFFFFFFFFFFFFFFFFFFFFFFFFFFFF1D
:1003F000FFFFFFFFFFFFFFFFFFFFFFFFFFFFFFFF0D
:10040000FFFFFFFFFFFFFFFFFFFFFFFFDEF9FFFF23
:100410000548064B1B1AD90F01EBA301491002D066
:10042000034B03B118477047500BFF1F500BFF1FC2
:100430000000000008B5054B1BB105490548AFF3A6
:100440000080BDE80840FFF7E3BF00BF00000000E8
:10045000500BFF1F8C2800002DE9F041304D314C2E
:100460002E68314F40F2EE2801F066FE2378002B13
:1004700048D03B78002B45D02C4B01221A70002429
:10048000E0B20221013400F0B1FE1C2CF8D1284B5F
:100490000221187800F0AAFE264B0221187800F0FD
:1004A000A5FE254B0221187800F0A0FE234B022167
:1004B000187800F09BFE224B0221187800F096FE7F
:1004C000204B0221187800F091FE1F4B0221187872
:1004D00000F08CFE1D4B0221187800F087FE1C4BAB
:1004E0000221187800F082FE1A4B0221187800F0E1
:1004F0007DFE2146184801F025FDBDE8F041174872
:1005000000F0B2BC2B6822789B1B2AB1B3F5FA6FBE
:10051000B2D801F011FEA7E74345FAD9ACE700BF16
:10052000F00BFF1FE10CFF1F140DFF1FF90CFF1F45
:10053000680BFF1F3809FF1F5009FF1F5109FF1FDC
:100540006C09FF1F6D09FF1F8409FF1F8509FF1F2D
:100550009C09FF1F9D09FF1F80250000B809FF1F90
:10056000F0B583B072B662B6624B634C187800F097
:100570002FFE624B2070187800F02AFE2378604A24
:10058000604C61494000C0B2034313702278087088
:100590005E499342086816D05D4E5E4D3168009109
:1005A00000992F688F4249D93168019101992960DA
:1005B000032B08D8DFE803F055226602012A00F079
:1005C0008280022A62D0544A5449157823700DBBA8
:1005D000534C23685D1C37D0013B002B236033DD77
:1005E0000B780BB34F4B504D1C68504B18600023D9
:1005F0000B70137001232B5503B0F0BD002A53D1AB
:100600004B4A4C4913780133137001230B60424A63
:1006100042492370484B444D1C68414B18600023ED
:1006200013700B7001232B55404A1368591C11D0CD
:10063000013B002B13600DDD03B0F0BDC91B312958
:100640009CBF3E490868AFE73B4B374C1B68002511
:10065000E554C5E7334B344A1B680021D15403B03D
:10066000F0BD022A23D0012AADD1314D314E297877
:100670000139297029490A70274A4FF0FF35356042
:100680001578A3E7032A29D0002A9CD128490A78A3
:10069000013A0A70274A4FF0FF3111601F490122C9
:1006A0000A701D4A157891E7032A8CD1EEE7204A9B
:1006B0002049137801331370012200230A6023704C
:1006C000154A1649A6E71A490B7801330B701949E8
:1006D00003230A602370104A10499BE7144A154906
:1006E000137801331370012202230A6023700A4A2F
:1006F0000A498FE7680BFF1F690BFF1F3809FF1FAF
:10070000780BFF1FC40BFF1F6A0BFF1F4809FF1F59
:10071000F00BFF1F700BFF1F6C0BFF1F6B0BFF1FFE
:100720004409FF1F740BFF1F940BFF1F4009FF1F9D
:10073000E80BFF1FB00BFF1F4C09FF1F3C09FF1FF9
:10074000F0B583B072B662B6564B574C187800F0CD
:100750003FFD564B2070187800F03AFD2378544A3C
:10076000544C55494000C0B20343137022780870BE
:1007700052499342086817D0514E524D316800914A
:1007800000992F688F4248D9316801914E49019EE6
:1007900009782E60032907D8DFE801F0526375025B
:1007A000012A75D0022A60D0484A49491578237039
:1007B000FDB9484C23685D1C35D0013B002B2360FC
:1007C00031DD0B78FBB1444B444D1C68444B186041
:1007D00000230B70137001232B5503B0F0BD414A69
:1007E00023701378404C3A4901252B441370374A43
:1007F00025603E4B394D1C68364B18600023137042
:100800000B7001232B55364A1368591C11D0013B3C
:10081000002B13600DDD03B0F0BDC91B31299CBF57
:1008200033490868B0E7314B2C4C1B680025E55470
:10083000C7E7294B294A1B680021D15403B0F0BDFA
:10084000022ACCD0012AAFD1264D274E2978013972
:1008500029701F490A701D4A4FF0FF353560157821
:10086000A5E7002ABBD0032A9ED11E490A78013A87
:100870000A701D4A4FF0FF311160154901220A70BC
:10088000124A157893E7032AA9D0002AEDD08BE706
:100890002370144C144923780A6001330B4A0C4925
:1008A0002370A6E75009FF1F790BFF1F5109FF1F97
:1008B000840BFF1FC50BFF1F7A0BFF1F6409FF1F6F
:1008C000F00BFF1F800BFF1F780BFF1F7C0BFF1F20
:1008D0007B0BFF1F5C09FF1F6009FF1F940BFF1FAD
:1008E0005809FF1FE90BFF1FB40BFF1F6809FF1F0B
:1008F0005409FF1F38B5414B414C187800F068FC93
:10090000404B2070187800F063FC23783E4A3F4C3F
:100910003F494000C0B203431370227808709342ED
:1009200009D0032B07D8DFE803F0025E634C022AEC
:100930001DD0012A49D0374A37491078237000BBAF
:10094000364803685C1C36D0013B002B036032DD67
:100950000B7813B3324B33481D68334B334C00686C
:100960001D6000230B7013700123235438BD3048E1
:10097000304D02782370531C0370264A2649012308
:100980002B60274B2C481D68244B284C00681D60A9
:10099000002313700B7001232354234A1368591C3E
:1009A00003D0013B002B1360E0DC1E4B1F4A1B6889
:1009B0000021D15438BD204B1C481B680024C4546E
:1009C000C6E7012AD3D0022AB5D1194919480A78B5
:1009D000013A0A704FF0FF350F490E4A05600120B9
:1009E00008701078AAE7002AC1D0032AA3D1ECE747
:1009F000032ABCD0002AE8D09DE700BF6C09FF1F86
:100A0000850BFF1F6D09FF1F890BFF1FC60BFF1F03
:100A1000860BFF1F880BFF1F870BFF1F7409FF1F2B
:100A20007C09FF1F7809FF1F7009FF1F940BFF1F30
:100A3000EA0BFF1FB80BFF1F8009FF1F38B5414BA2
:100A4000414C187800F0C4FB404B2070187800F03F
:100A5000BFFB23783E4A3F4C3F494000C0B20343AE
:100A6000137022780870934209D0032B07D8DFE86F
:100A700003F0025E634C022A1DD0012A49D0374A96
:100A800037491078237000BB364803685C1C36D0A9
:100A9000013B002B036032DD0B7813B3324B33483C
:100AA0001D68334B334C00681D6000230B701370BE
:100AB0000123235438BD3048304D02782370531C35
:100AC0000370264A264901232B60274B2C481D68BA
:100AD000244B284C00681D60002313700B70012309
:100AE0002354234A1368591C03D0013B002B136085
:100AF000E0DC1E4B1F4A1B680021D15438BD204B3F
:100B00001C481B680024C454C6E7012AD3D0022A1B
:100B1000B5D1194919480A78013A0A704FF0FF35E2
:100B20000F490E4A0560012008701078AAE7002AD4
:100B3000C1D0032AA3D1ECE7032ABCD0002AE8D015
:100B40009DE700BF8409FF1F8A0BFF1F8509FF1F58
:100B50008E0BFF1FC70BFF1F8B0BFF1F8D0BFF1F84
:100B60008C0BFF1F8C09FF1F9409FF1F9009FF1FAB
:100B70008809FF1F940BFF1FEB0BFF1FBC0BFF1F10
:100B80009809FF1F38B5414B414C187800F020FB05
:100B9000404B2070187800F01BFB23783E4A3F4CF6
:100BA0003F494000C0B2034313702278087093425B
:100BB00009D0032B07D8DFE803F0025E634C022A5A
:100BC0001DD0012A49D0374A37491078237000BB1D
:100BD000364803685C1C36D0013B002B036032DDD5
:100BE0000B7813B3324B33481D68334B334C0068DA
:100BF0001D6000230B7013700123235438BD30484F
:100C0000304D02782370531C0370264A2649012375
:100C10002B60274B2C481D68244B284C00681D6016
:100C2000002313700B7001232354234A1368591CAB
:100C300003D0013B002B1360E0DC1E4B1F4A1B68F6
:100C40000021D15438BD204B1C481B680024C454DB
:100C5000C6E7012AD3D0022AB5D1194919480A7822
:100C6000013A0A704FF0FF350F490E4A0560012026
:100C700008701078AAE7002AC1D0032AA3D1ECE7B4
:100C8000032ABCD0002AE8D09DE700BF9C09FF1FC3
:100C90008F0BFF1F9D09FF1F930BFF1FC80BFF1F2B
:100CA000900BFF1F920BFF1F910BFF1FA409FF1F4B
:100CB000AC09FF1FA809FF1FA009FF1F940BFF1F0E
:100CC000EC0BFF1FC00BFF1FB009FF1F2DE9F843FE
:100CD000FFF746FC5E4DDFF88C915E4E5E4FFFF7EE
:100CE0002FFD0A24FFF706FE4FF00108FFF7A6FECE
:100CF000FFF748FF02E001341C2C1AD0E0B200F0EC
:100D000067FAD9F80030B0FA80F252099C4205F82F
:100D1000012FF0D008FA04F3002860D132681343A1
:100D20003A783360002AE6D1013401F011F81C2C26
:100D3000E4D14A4D2B7E002B40F0818033683A7815
:100D400043F080533360002A6CD0697E002970D153
:100D500043F000533360002A57D0A97E00295BD1AD
:100D600043F080433360002A42D0E97E002946D117
:100D700043F000433360002A37D000244FF00108CD
:100D800007E0326813433A783360A2B101340A2C89
:100D900016D0D9F80030A342F8D02A5D08FA04F33F
:100DA000002AEED1336808FA04F223EA02033A7803
:100DB0003360002AEAD1013400F0CAFF0A2CE8D1DE
:100DC000264D274C00F0C4FF0FCD0FC495E8070057
:100DD00084E807000120BDE8F84300F043BA336817
:100DE00008FA04F223EA02039AE700F0B1FFC4E72D
:100DF00000F0AEFFE97E33683A780029B8D023F0DE
:100E000000433360002AB8D1EFE700F0A1FFA97ECC
:100E100033683A780029A3D023F080433360002A56
:100E2000A3D1E5E700F094FF697E33683A780029A2
:100E30008ED023F000533360002A8ED1E5E733686B
:100E40003A7823F080533360002A7FF47EAFE9E7DD
:100E50009D0BFF1FFC0CFF1FF90CFF1F940BFF1FC6
:100E6000CC0BFF1FB409FF1F00B5036883B040F629
:100E70000D22ADF804205B68022201A9984703B057
:100E80005DF804FB08B5FFF7E7FAFFF71FFF01F075
:100E900053F9FAE701B441EA000313F003036FD1F9
:100EA000403A41D351F8043B40F8043B51F8043B2D
:100EB00040F8043B51F8043B40F8043B51F8043B34
:100EC00040F8043B51F8043B40F8043B51F8043B24
:100ED00040F8043B51F8043B40F8043B51F8043B14
:100EE00040F8043B51F8043B40F8043B51F8043B04
:100EF00040F8043B51F8043B40F8043B51F8043BF4
:100F000040F8043B51F8043B40F8043B51F8043BE3
:100F100040F8043B51F8043B40F8043B51F8043BD3
:100F200040F8043B403ABDD2303211D351F8043B73
:100F300040F8043B51F8043B40F8043B51F8043BB3
:100F400040F8043B51F8043B40F8043B103AEDD222
:100F50000C3205D351F8043B40F8043B043AF9D273
:100F600004320AD0D2071CBF11F8013B00F8013B44
:100F700003D30B7803704B78437001BC704700BFFC
:100F80000C2A4AD310F0030311D0C3F10403D21A80
:100F9000DB071CBF11F8013B00F8013B07D311F838
:100FA000013B00F8013B11F8013B00F8013B11F057
:100FB00003033FF475AF30B4043AC91AC3F1040C0B
:100FC00051F8044B022B19D0032B0BD0240A51F8F3
:100FD000043B1D0644EA050440F8044B1C46043A51
:100FE000F4D216E0240E51F8043B1D0244EA050435
:100FF00040F8044B1C46043AF4D20AE0240C51F8A1
:10100000043B1D0444EA050440F8044B1C46043A22
:10101000F4D20432B1EB0C0130BC043AA0D3013A53
:1010200011F8013B00F8013BF9D20B7803704B78C3
:1010300043708B78837001BC704700BF08B50F4CBC
:10104000636B58030DD4636B59050FD4636B1A059A
:1010500011D4636BDB04F3D500F012F8636B580313
:10106000F1D500F007FA636B5905EFD500F008F8E9
:10107000636B1A05EDD500F003F8EAE70080044041
:1010800008B5FFF7DBFF00BF014B10221A80704745
:1010900000200540704700BF01F1FF3C70B5654678
:1010A000002401E070460134B0FBF2FE02FB1E0397
:1010B000092B03F130068ABF3733F3B2DBB290421B
:1010C00005F8013FEED2631C0022CA54C8187CB157
:1010D00062461CF8015F10F801ED8CF800E0A1EB0E
:1010E0000C030232013B521A23449A420570EFDB93
:1010F000084670BD034B002210215A615A601860E7
:101100005961704700D00340704700BF4FF0E02C9A
:10111000F0B54FF0006ECCF804E14FF0805ECCF8F3
:1011200004E14FF0005ECCF804E1244A244925484C
:10113000254C4FF0804ECCF804E1282300274EF6D2
:10114000FF7609254FF0004ECCF804E183B04F60E4
:101150008E60CB604B61CB614B62CB624B63CB63E8
:101160004B64D3605361D3615362D3625363D363DF
:1011700053640D606760A660E3606361256047604B
:101180008660C3604361056057609660D3605361B9
:10119000156001F075F8FFF7B7FF0C4C236800935A
:1011A000009B132BFAD900F03BFD23680193019BB0
:1011B000B3F5967FF9D303B0F0BD00BF00900B40AC
:1011C0000080034000800B4000900340F00BFF1FA5
:1011D0003F2806D8044B53F8303093F80002C0B2D1
:1011E00070470020704700BFA02500003F2820D88E
:1011F0001B4A02EBC00301295B680FD004291DD0F4
:1012000052F83000002280F8802299B1022922D0C1
:1012100003290DD14FF481721A60704752F83000E3
:101220004FF4A27280F880121A601A6822F020022D
:101230001A6070474FF480721A60704752F830108D
:101240004FF4A272012081F880021A601A6842F0FD
:1012500020021A60704740F203121A60704700BF04
:10126000A02500002DE9F843044672B6204F4FF048
:10127000E02293693D68D2F8042D62B6520102D58E
:10128000322B88BF01350CB9BDE8F883DFF86490D4
:10129000DFF86480A9EB0303A8FB03234FF47A7201
:1012A00002FB05F505EB93154FF0E02672B6B16928
:1012B0003A68D6F804CD62B6A9EB0103A8FB030394
:1012C0001CF0806FC5EB93134FF47A7002D0322973
:1012D00088BF013200FB0233B3F57A7F04D3013CAF
:1012E000D2D005F57A75E1E700F026FFDEE700BF12
:1012F000F00BFF1FBFD4010089888888431E042B90
:1013000016D872B60B4951F8230078B130B40A4CA4
:10131000B0F800C034F81320456841F82350A2EB20
:101320000C0224F8132062B630BC704762B67047D6
:1013300000207047840CFF1FE40CFF1F01380428B5
:101340000BD872B6074B53F8203043B100205B68CE
:101350000130002BFBD162B6704700207047184661
:10136000F9E700BFB40CFF1F10B472B61A4A1B4C49
:10137000042312F8011B090743F0010C05D554F8AA
:10138000331069B154F83C10C9B10433182BF0D1B3
:1013900062B6134B00221A705DF8044B00F02CBDAE
:1013A0000F4904EBC302083050600A780D4844F836
:1013B0003300013A0A7062B65DF8044B7047084A80
:1013C000094904EBCC0308305860137844F83C100A
:1013D000013B137062B6EFE7642800000000FF1FB6
:1013E000EE0CFF1F88004000C8004000421E042A87
:1013F0000ED81C4B400140F0100010B4034472B6EC
:10140000194CA05C03281DD8DFE800F0141603195E
:1014100070470520A05413F0080F088814BFC82295
:101420008822083142EA004259601A6062B65DF8CB
:10143000044B70470320EDE708330220EAE7083346
:101440000420E7E7094B53F8220038B1084B53F862
:101450002200416043F8221062B6E8E743F8221008
:10146000034BF7E70000FF1FDC0CFF1FB40CFF1F4E
:10147000C80CFF1F2DE9F04FDFF82093DFF820A301
:10148000DFF820B387B03DE0B44D9E0805EBC607FA
:10149000013A796813F00803D4B2A1F1080040F0D2
:1014A000C08055F836204FEA124C120C21F808CCB7
:1014B00000F0AF8021F8063C41F8043CA84B53F8FB
:1014C0002420002A00F0B381A64B53F8242050605A
:1014D00043F82400A44B33F81420944423F814C098
:1014E00000F06AFC002800F09B8117F0080F00F163
:1014F000080014BF53465B46786045F83630082331
:1015000089F8803099F880305907DCB21DD5974BA7
:101510001B78BBB196490A7802F0FF032AB1013B60
:10152000DBB20B70002B00F0588392490A7802F06E
:10153000FF032AB1013BDBB20B70002B00F09D8151
:1015400000F0BEFB042389F8803014F0080200F09C
:101550007C8199F89020D3B2120995D1DFF8FC81F3
:101560009B0808EBC30458F833006568C0F3830098
:10157000092800F0828014D8013801280DD87E484F
:10158000068842F22104A64200F0F4817B4A0468F6
:10159000944200F0A68148F833A0012389F89430E2
:1015A000ADE70D28F9D1D5E90067754D48F833A0AE
:1015B0007148744CC8F81020B3B240F2816CC8F87E
:1015C00018202A6063454FF00102C0E900672270CD
:1015D00000F20081B3F5D06F80F0E581B3F5817F33
:1015E00000F0028240F2E08040F2023293427DD16C
:1015F00007F07F07052F00F2F980320C40F0F680EB
:10160000614911F8273043F0020301F827301346EF
:1016100071E017F0080F14BF53465B4645F83630AB
:101620006DE700F0E9FB594A594852F82430002B85
:1016300000F00181596842F82410025D03F10801AD
:101640007960032A05D8DFE802F0120F15020422A0
:1016500002551A8817F0080F14BFC823882343EADD
:10166000024345F836304AE702220255F1E70322E9
:101670000255EEE705220255EBE7414D2A684AB3D1
:10168000444F404C3888444E94F800E096F800C02F
:101690004028034628BF4023BEF1000F8EF0010E04
:1016A00084F800E04CF002048CF0010C86F800C0D5
:1016B00008EBC406726014BFC826882646EA0346B3
:1016C0001A44C31A9BB248F834603B80002B00F0E8
:1016D000DE802A60284B1A88B2F5A06F7FF45DAFD8
:1016E0009A7889F8982000225A7056E7B3F5A06FCF
:1016F0007CD100221346B0F806C0274E944528BF7F
:10170000944660463278402828BF402042F0020EBE
:10171000070408EBCE0147F0C8074B6048F83E705D
:10172000002703442770BCEB000082F001073770EC
:1017300040F0BB80BCF13F0F4FF0010009D947F0EA
:101740000207327008EBC70220705360882348F804
:101750003730012389F894301FE700BF0000FF1FD6
:10176000840CFF1F980CFF1FE40CFF1FE10CFF1FF0
:10177000E20CFF1F150DFF1FAC0CFF1F210900031A
:10178000780CFF1F750CFF1FC0200740B40CFF1F13
:10179000DC0CFF1F760CFF1F740CFF1F002007409E
:1017A000C800400088004000802B00F0ED81822BB3
:1017B0001CD107F07F02052A18D8974B97490026BD
:1017C0001E8011F82220960740F1058201221A702E
:1017D000022290E7B3F5106F00F018810DD940F6A2
:1017E00021129342B5D0B3F5126F0ED80F2389F8AA
:1017F000C030012389F89430CFE6B3F5086FF5D1F6
:10180000874B1E78844B1E7075E740F62122934269
:101810003FF46FAF42F2212293423FF46AAFE5E713
:10182000804A45F8360013780133137067E643F8B1
:1018300024007D4B4CE6025D022A26D07FF65FAE87
:10184000032A1DD10123035559E6E0076DD4210673
:1018500021D4A20708D5754B93F888200221D2B273
:1018600083F8882083F88010E30603D56F4B10229D
:1018700083F8802007B0BDE8F08F00F03DFC5FE604
:1018800017F0080F14BF03230223035537E63F2840
:1018900098BF00221DE7654B80220D2183F8C01000
:1018A00083F88020A207DFD5D5E747F00207327022
:1018B000402808EBC706024628BF40227360160482
:1018C000134446F088060121821A48F837602170D7
:1018D00000F05F812B60564B1A80012389F8943009
:1018E0005BE64068534A90427FF455AE2A78A92AB5
:1018F00000F06181504A01201070504C504E207809
:101900003278002880F00100207042F0020082F05E
:101910000102327008EBC0024FF00004546014BFA3
:10192000C822882248F8302035E6404B44484549D3
:10193000454C022583F89450027044480C60444D95
:1019400048608C600D24CD60FF200A618A6183F8B5
:10195000C04001219F2483F8880083F8800083F829
:10196000982083F88C0083F8844083F8941007B0A3
:10197000BDE8F08F314C324E94F800C03778BCF19E
:10198000000F8CF0010C84F800C047F0020487F0CF
:101990000107377008EBC406726014BFC8228822A2
:1019A00048F83420F2E52B4A5368002B3FF41EAF71
:1019B00094464FEA164EBAB206E0DCF810300CF14D
:1019C0000C0C002B3FF412AFBCF800107145F4D1A1
:1019D000BCF802109142F0D14FEA1E26032E0CBF34
:1019E0001A78BCF8082086E607F07F02052A3FF641
:1019F000FDAE360C7FF4FAAE084911F8223023F020
:101A0000020301F822300022134674E6044BC6F3A9
:101A100007461E70042522E07C0CFF1FC0200740F3
:101A2000E10CFF1FEE0CFF1F980CFF1F002007406A
:101A3000760CFF1F01000400140DFF1F750CFF1F23
:101A4000740CFF1F0000FF1F88004000F40BFF1FF5
:101A5000340CFF1FC82700000135182D0CD058F892
:101A600035301A06F8D508EBC50301355868083833
:101A700000F0C2F9182DF2D15C4A01925C4A5D4B2C
:101A800004925D4A03925D4E5D4A059402920025E0
:101A90001C4656F8047B2FB138467F6800F0ACF93D
:101AA000002FF9D1029B46F8045C43F8045B0293D3
:101AB000019B1F682FB138467F6800F09DF9002F09
:101AC000F9D1019B43F8045B0193049B43F8045B49
:101AD0000493039B23F8025B03932378023B032BBD
:101AE00006D8DFE803F03A023A024FF00103237010
:101AF000444BB34204F10104CBD1434E059C434F08
:101B000000233370042517F8013B414AAB541B07EF
:101B100025D445F0020145F0030204350023182DB9
:101B200048F8313048F83230EDD13A4E20783278EA
:101B300042F0020508EBC50C80F00107CCF8043038
:101B400000284BD1882382F001022770327048F8B8
:101B50003530012389F894301FE52570C8E700F07F
:101B60002BF910B308EBC5030830586048F835B0BE
:101B700000F022F988B145F0010308EBC3020830F8
:101B8000506048F833A0C4E7234B00221A80022299
:101B9000B1E53F283FF69EAEDBE533780133337085
:101BA00045F0010348F83300B3E7337848F83500CF
:101BB00001333370DCE76A78452A7FF49BAEAA785C
:101BC000C22A7FF497AEEA786B2A7FF493AE134A69
:101BD0000520107091E602228DE500BE2770C82313
:101BE00082F00107377048F83530B2E5B40CFF1FBA
:101BF000C80CFF1FDC0CFF1FE40CFF1F840CFF1F31
:101C0000980CFF1F980CFF1FEE0CFF1F64280000AC
:101C1000C0200740740CFF1F7C0CFF1FE20CFF1F4D
:101C200010B500F093FB00231E4A194642F833100A
:101C300002EBC3000133182B4160F7D11A481B4C4B
:101C4000436B43F480234363D4F80008184B40F0FF
:101C50004070C4F80008C2F3072CC2F30744120E08
:101C600083F89CC083F8B04083F8B420114AFF2069
:101C70004FF0010C83F8800083F88800187483F813
:101C800094C011700C4983F884C0702081F835002D
:101C90004FF0E0214FF400101023C1F8040113723B
:101CA00010BD00BF0000FF1F0080044000D00040B6
:101CB000002007400021074000E400E0704700BF1B
:101CC00038B50E4B1B78BBB90D4D2C68A4B162889A
:101CD00092B13F2A08D802F1080003F0FF01C2F1D7
:101CE0004002204400F06AFB402323802146032069
:101CF000FFF77CFB00232B6038BD00BFEF0CFF1FFC
:101D0000F00CFF1F044A054B126882B00192019A41
:101D10001A6002B0704700BFF00BFF1FF40CFF1FEA
:101D200000F0BEB800F090B800F0D8B800F0C0B92C
:101D300000F09AB90846114600F004B9084600F0D0
:101D400085B900BF0148FFF7B9BF00BFF80CFF1FFE
:101D5000F8B5164E337833B3154F45F6891407E0BE
:101D6000013C1ED03B78E3B900F0E6F93378D3B1FB
:101D70000520FFF7E3FA0228F2D800F01DF8054627
:101D80000028EDD00C26002432460A493C70083069
:101D9000FFF780F82E8029460520FFF727FB204615
:101DA000F8BD01233B704FF0FF30F8BDE10CFF1F81
:101DB000FA0CFF1FFC0CFF1F72B60D490B68B3FA3B
:101DC00083F0132810DC4FF00042C24023EA0203E4
:101DD0000B6062B6074A00EBC000C10002EBC00016
:101DE000002353504360704762B60020704700BF25
:101DF000C809FF1F9803FF1F0E4BC31AB3F5B46F3A
:101E000010D20D4A127872B972B60C4A0C49A2FB74
:101E1000032308684FF000421B0922FA03F303432F
:101E20000B6062B67047074A1278002AECD0FFF7C1
:101E30009BBA00BF9803FF1FEE0CFF1F398EE338DB
:101E4000C809FF1FE10CFF1F70B5134E33788BB12B
:101E5000124D286840B14388C218147A74B9FFF74C
:101E6000CBFF33782C602BB10220FFF747FA2860B4
:101E70000028F0D14FF0FF34204670BD02880133B6
:101E80009A4202D94380204670BDFFF7B5FF002378
:101E90002B60204670BD00BFE10CFF1F080DFF1F27
:101EA00070B50C4E33788BB10B4D286840B1438828
:101EB00003441C7A64B9FFF79FFF33782C602BB181
:101EC0000220FFF71BFA28600028F0D14FF0FF3402
:101ED000204670BDE10CFF1F080DFF1F38B5174DE0
:101EE0002C68CCB1238861888B420CD9CA1D581A42
:101EF0002244002302E0013383420CD012F8011F78
:101F00000029F8D1BBB920460024FFF775FF2C60EB
:101F100000F012F9204638BD094B1B781BB900F0C0
:101F20000BF9002038BD0220FFF7E8F904462860CD
:101F30000028D7D1F3E7184638BD00BF080DFF1FB2
:101F4000E10CFF1F2DE9F84F3B4D01222A7081B3B0
:101F5000DFF8F090DFF8F0A0384F83460E46D9F84E
:101F60000000002837D0B0F802E0CEF1400CB445B4
:101F700028BFB4460EEB0C040022A4B23A70448091
:101F800000F10802A6EB0C06BCF1000F0AD00EF11E
:101F9000FF3E7244DC441BF8014B02F8014FDC4564
:101FA000F9D144883F2C08D8254B05221A70002E01
:101FB000D5D100202870BDE8F88F214B4022028047
:101FC0000024014601201C70FFF710FAC9F80040F8
:101FD000002EC4D1EDE79AF800203AB345F68914F3
:101FE0004FF001080BE0013C18D03A78B2B92A70E2
:101FF00000F0A2F885F800809AF80020B2B1012024
:10200000FFF79CF90528EED885F80080FFF7D4FE8D
:10201000C9F800000028A6D1013CE6D10122002326
:102020003A702B704FF0FF30BDE8F88F00232B7013
:102030004FF0FF30BDE8F88F0D0DFF1F0C0DFF1F97
:10204000150DFF1F100DFF1FE10CFF1F00B583B022
:10205000034601210DF107008DF80730FFF772FFED
:1020600003B05DF804FB00BF38B50E4D0E4C2B6875
:10207000012020702BB158880023C0F1400023704C
:1020800038BD0A4B1B7813B90020207038BDFFF70C
:1020900055F90528F8D8FFF78FFE03462860002879
:1020A000E9D1F1E7100DFF1F0D0DFF1FE10CFF1F20
:1020B00038B50E4B1B78C3B10D4D2C68ACB162889E
:1020C0009AB10C4B00213F2A197006D802F1080082
:1020D0002044C2F1400200F071F9402323802146E0
:1020E0000120FFF783F900232B6038BDE10CFF1FAF
:1020F000100DFF1F150DFF1F38B50D4B1B78ABB929
:102100000C4D2C6862883F2A08D802F1080003F0C1
:10211000FF01C2F14002204400F050F94023238027
:1021200021460120FFF762F900232B6038BD00BF74
:102130000D0DFF1F100DFF1F2DE9F843324E3378B0
:1021400063B1324F3A784AB90122D9073A7043D481
:102150009A0726D400225B073A7001D4BDE8F883C1
:102160002B4B1A68002AF9D0EFF30582002AF5D12B
:10217000EFF3108572B6186800283AD0254C217804
:10218000002936D142691A6001232370002A37D012
:10219000916105B962B60025836845779847257037
:1021A000DCE7DFF87C8098F80020002AD2D00025F8
:1021B000DFF870902B4659F82340236820461B69AE
:1021C0000135984708B12369984798F80020EBB289
:1021D0009A42F0D83378BDE7FFF780FE68B90E4B1E
:1021E0001B780BB93378B3E7337803F0FE03337011
:1021F000AEE7002DB2D162B6B0E700F0A5F8EEE789
:10220000064B1A60C5E700BFCC09FF1F160DFF1F64
:10221000180DFF1F240DFF1FC4270000280DFF1FEE
:10222000440DFF1F2C0DFF1F70B5EFF3108272B627
:102230000C4C206880B10C4E00254369236073B1BB
:102240009D6102B962B6836845779847EFF31082C3
:1022500072B620680028F0D102B962B670BD336052
:10226000EFE700BF200DFF1F1C0DFF1FFFF7DCBFB6
:10227000024A136801331360704700BFF00BFF1F61
:102280002A4B2B4A6020E121187059701378294895
:10229000082B34D00A2B20D00C2B274B0CBF352118
:1022A0005D2112228160C2609960DA60234B21496E
:1022B0001B78214ACBB101230B621362204B1D49CD
:1022C0001B781D4A012B13D9042B1BD884234B6286
:1022D00053621C4B01221A707047174B392113228D
:1022E0008160C2609960DA60E0E70B621362E5E743
:1022F00080234B625362134B01221A7070470E4BBE
:102300002121ECE7082B06D885234B6253620D4B45
:1023100001221A707047102B94BF862387234B62CB
:102320005362084B01221A70704700BF00400740FB
:10233000CD09FF1F00B0034000B00B40450DFF1F4B
:10234000CE09FF1F460DFF1F704700BF10B584B0B8
:1023500072B6164A164951607020802310701370AF
:1023600013781B06FCD5D06862B6124B124C98420B
:1023700038BF00EB800001A938BF40000A22FEF7F9
:102380008BFE01A92046002311F8012B01333AB13D
:102390000A2B20F8022FF7D11623237004B010BDAA
:1023A0005B00DBB2237004B010BD00BF0000024030
:1023B0000000074180969800340BFF1F830730B55B
:1023C00048D0541E002A3FD0CAB2034601E0013C67
:1023D0003AD303F8012B9D07F9D1032C2DD9CDB2A7
:1023E00045EA05250F2C45EA054536D9A4F110022A
:1023F00022F00F0C03F1200EE6444FEA121C03F109
:10240000100242E9045542E9025510327245F8D1F2
:102410000CF1010214F00C0F03EB021204F00F0C8C
:1024200013D0ACF1040323F003030433134442F844
:10243000045B9342FBD10CF003042CB1C9B21C44E1
:1024400003F8011B9C42FBD130BD64461346002CAF
:10245000F4D1F9E703461446BFE71A46A446E0E77D
:1024600070B50D4E0D4D761BB61006D0002455F8F4
:10247000043B01349847A642F9D1094E094D761B19
:1024800000F0F4F9B61006D0002455F8043B0134EE
:102490009847A642F9D170BD78280000782800003E
:1024A0008828000078280000704700BF704700BFF0
:1024B000024B13B1024800F005B87047000000005D
:1024C000D1240000002301461A46184600F014B833
:1024D00038B5074D074C2C1BA41005D0013C55F80E
:1024E000043D9847002CF9D1BDE8384000F0CCB944
:1024F00000000000000000002DE9F047DFF87CA09C
:102500000646DAF8000098460F469146FFF7CCFFE2
:10251000184B1C6824B365681F2D24DC5EB96B1C46
:102520000235DAF80000636044F82570FFF7BEFF5B
:102530000020BDE8F08704EB85010123C1F88890F5
:10254000D4F88821AB401A43022EC4F88821C1F880
:102550000881E4D1D4F88C211A43C4F88C21DEE739
:10256000054C1C60D7E7DAF80000FFF79FFF4FF03B
:10257000FF30DEE74C0DFF1F500DFF1F4C0BFF1F00
:10258000426567696E20436F6D706C657465204AA3
:102590006F79737469636B205465737400FFFFFF78
:1025A0004008FE4340A004404408FE4344A00440C9
:1025B0000018FE4300C004403000FE433090044049
:1025C0003400FE43349004401C18FE431CC00440F9
:1025D0001018FE4310C004400818FE4308C0044011
:1025E0000C18FE430CC004400C10FE430CB0044019
:1025F0001010FE4310B004401810FE4318B0044001
:102600001C10FE431CB004401410FE4314B00440E0
:102610000418FE4304C004400010FE4300B0044010
:102620000008FE4300A004400408FE4304A0044048
:102630000C08FE430CA004400808FE4308A0044018
:102640001418FE4314C004401818FE4318C0044078
:102650000410FE4304B004400810FE4308B00440D8
:102660006820FE4368D004401400FE4314900440E8
:102670003800FE43389004403C00FE433C90044048
:102680004000FE43409004404808FE4348A00440F8
:102690004C08FE434CA004402808FE4328A00440F8
:1026A0002C08FE432CA004406020FE4360D0044070
:1026B0006420FE4364D004402010FE4320B0044058
:1026C0002410FE4324B004402810FE4328B00440E8
:1026D0002C10FE432CB004404400FE4344900440C0
:1026E0007000FE43709004407400FE4374900440F8
:1026F0006800FE43689004405008FE4350A0044028
:102700005808FE4358A004405C08FE435CA0044007
:102710005408FE4354A004402018FE4320C0044047
:102720002418FE4324C004401008FE4310A00440B7
:102730001408FE4314A004403818FE4338C0044077
:102740003418FE4334C004403018FE4330C0044007
:102750003C18FE433CC004402C18FE432CC00440EF
:102760002820FE4328D004402C20FE432CD00440D7
:102770000020FE4300D004400420FE4304D0044067
:102780000820FE4308D004400C20FE430CD0044037
:102790001020FE4310D004401420FE4314D0044007
:1027A00000000000000000003D1D0000351D00007D
:1027B000311D00002D1D0000291D0000251D0000F9
:1027C000211D000000FFFFFF00010000340AFF1F71
:1027D0001200000000020000D009FF1F620000008C
:1027E00000220100BC0AFF1F21000000002101009F
:1027F000020AFF1F0900000000220200640AFF1FF6
:102800005500000000210200220AFF1F09000000FD
:1028100000220000480AFF1F1C00000000210000E9
:10282000E209FF1F0900000000030000E00AFF1F8B
:102830000000000001030904E40AFF1F000000007B
:1028400002030904FC0AFF1F00000000030309043F
:10285000340BFF1F0000000000000000000000001B
:10286000000000001519151915FFFFFFF8B500BF8E
:10287000F8BC08BC9E467047B12400003504000037
:08288000051D0000451D0000CC
:04288800F8B500BFE0
:10288C00010000002C010000FFFFFFFFFFFFFFFF16
:10289C000F00000001000000020300002C010000EA
:1028AC00FFFFFFFFFFFFFFFF0200000050000000D2
:1028BC000300000004050000FFFFFFFFFFFFFFFF08
:1028CC0004000000140000000500000006070000D2
:1028DC00FFFFFFFFFFFFFFFF06000000500000009E
:1028EC000700000008090000FFFFFFFFFFFFFFFFCC
:1028FC000800000014000000090000000D0000009A
:10290C00A827000000000000E80300000000000001
:10291C00FFFFFFFF010A040009026200030100C06F
:10292C00320904000002030000000921110100011A
:10293C00221C000705830340000107050403400027
:10294C00010904010002030000000921110100012A
:10295C002221000705810340000107050203200026
:10296C000209040200010300000009211101000109
:10297C00225500070585030C00010000120110010F
:10298C0000000040C016880411020102030100007F
:10299C00061CFF0A39A7A1017508150026FF009532
:1029AC004009018102954009029102C00501090408
:1029BC00A101150025017501952005091901292092
:1029CC008102150025073500463B0175049501650C
:1029DC001405010939814205010901A100150026E0
:1029EC00FF03750A95040930093109320935810252
:1029FC00C0150026FF03750A9502093609368102B7
:102A0C00C000000006C9FF0904A15C75081500266A
:102A1C00FF00954009758102952009769102950475
:102A2C000976B102C0000000040309041803540025
:102A3C00650065006E007300790064007500690024
:102A4C006E006F0036035400650065006E00730065
:102A5C007900200046006C00690067006800740073
:102A6C002000530069006D00200043006F006E00D1
:102A7C00740072006F006C00730000000C03000007
:102A8C00000000000000000000000000000000003A
:082A9C0000000000480DFF1FBF
:00000001FF
